{
  "_format": "hh-sol-artifact-1",
  "contractName": "ArbitrationSystem",
  "sourceName": "contracts/contract.sol",
  "abi": [
    {
      "inputs": [
        {
          "internalType": "address",
          "name": "tokenAddress",
          "type": "address"
        }
      ],
      "stateMutability": "nonpayable",
      "type": "constructor"
    },
    {
      "anonymous": false,
      "inputs": [
        {
          "indexed": false,
          "internalType": "string",
          "name": "result",
          "type": "string"
        },
        {
          "indexed": false,
          "internalType": "address[]",
          "name": "winners",
          "type": "address[]"
        }
      ],
      "name": "DisputeResolved",
      "type": "event"
    },
    {
      "anonymous": false,
      "inputs": [
        {
          "components": [
            {
              "internalType": "address",
              "name": "pubKey",
              "type": "address"
            },
            {
              "internalType": "uint256",
              "name": "weight",
              "type": "uint256"
            }
          ],
          "indexed": false,
          "internalType": "struct ArbitrationSystem.SelectJuror[]",
          "name": "selectedJurors",
          "type": "tuple[]"
        }
      ],
      "name": "JurorsSelected",
      "type": "event"
    },
    {
      "anonymous": false,
      "inputs": [
        {
          "components": [
            {
              "internalType": "address",
              "name": "juror",
              "type": "address"
            },
            {
              "internalType": "uint256",
              "name": "amount",
              "type": "uint256"
            }
          ],
          "indexed": false,
          "internalType": "struct ArbitrationSystem.Result[]",
          "name": "rewards",
          "type": "tuple[]"
        },
        {
          "components": [
            {
              "internalType": "address",
              "name": "juror",
              "type": "address"
            },
            {
              "internalType": "uint256",
              "name": "amount",
              "type": "uint256"
            }
          ],
          "indexed": false,
          "internalType": "struct ArbitrationSystem.Result[]",
          "name": "penalties",
          "type": "tuple[]"
        }
      ],
      "name": "RewardsAndPenalties",
      "type": "event"
    },
    {
      "anonymous": false,
      "inputs": [
        {
          "indexed": true,
          "internalType": "address",
          "name": "juror",
          "type": "address"
        },
        {
          "indexed": false,
          "internalType": "uint256",
          "name": "amount",
          "type": "uint256"
        }
      ],
      "name": "TokensStaked",
      "type": "event"
    },
    {
      "anonymous": false,
      "inputs": [
        {
          "indexed": false,
          "internalType": "uint8",
          "name": "winningOption",
          "type": "uint8"
        }
      ],
      "name": "Winner",
      "type": "event"
    },
    {
      "inputs": [],
      "name": "MAX_JURORS",
      "outputs": [
        {
          "internalType": "uint256",
          "name": "",
          "type": "uint256"
        }
      ],
      "stateMutability": "view",
      "type": "function"
    },
    {
      "inputs": [
        {
          "internalType": "address",
          "name": "",
          "type": "address"
        }
      ],
      "name": "jurorSelectionCounts",
      "outputs": [
        {
          "internalType": "uint256",
          "name": "",
          "type": "uint256"
        }
      ],
      "stateMutability": "view",
      "type": "function"
    },
    {
      "inputs": [
        {
          "internalType": "uint256",
          "name": "",
          "type": "uint256"
        }
      ],
      "name": "jurors",
      "outputs": [
        {
          "internalType": "address",
          "name": "addr",
          "type": "address"
        },
        {
          "internalType": "uint256",
          "name": "stake",
          "type": "uint256"
        }
      ],
      "stateMutability": "view",
      "type": "function"
    },
    {
      "inputs": [
        {
          "components": [
            {
              "internalType": "address",
              "name": "pubKey",
              "type": "address"
            },
            {
              "internalType": "uint256",
              "name": "weight",
              "type": "uint256"
            }
          ],
          "internalType": "struct ArbitrationSystem.Voter[]",
          "name": "voters",
          "type": "tuple[]"
        },
        {
          "components": [
            {
              "internalType": "address",
              "name": "pubKey",
              "type": "address"
            },
            {
              "internalType": "uint256",
              "name": "voted",
              "type": "uint256"
            }
          ],
          "internalType": "struct ArbitrationSystem.Vote[]",
          "name": "votes",
          "type": "tuple[]"
        }
      ],
      "name": "resolveDispute",
      "outputs": [],
      "stateMutability": "nonpayable",
      "type": "function"
    },
    {
      "inputs": [],
      "name": "selectJurors",
      "outputs": [
        {
          "components": [
            {
              "internalType": "address",
              "name": "pubKey",
              "type": "address"
            },
            {
              "internalType": "uint256",
              "name": "weight",
              "type": "uint256"
            }
          ],
          "internalType": "struct ArbitrationSystem.SelectJuror[]",
          "name": "",
          "type": "tuple[]"
        }
      ],
      "stateMutability": "nonpayable",
      "type": "function"
    },
    {
      "inputs": [
        {
          "internalType": "uint256",
          "name": "amount",
          "type": "uint256"
        }
      ],
      "name": "stakeTokens",
      "outputs": [],
      "stateMutability": "nonpayable",
      "type": "function"
    },
    {
      "inputs": [],
      "name": "token",
      "outputs": [
        {
          "internalType": "contract IERC20",
          "name": "",
          "type": "address"
        }
      ],
      "stateMutability": "view",
      "type": "function"
    },
    {
      "inputs": [],
      "name": "totalStakedTokens",
      "outputs": [
        {
          "internalType": "uint256",
          "name": "",
          "type": "uint256"
        }
      ],
      "stateMutability": "view",
      "type": "function"
    },
    {
      "inputs": [
        {
          "internalType": "address",
          "name": "",
          "type": "address"
        }
      ],
      "name": "voterWeights",
      "outputs": [
        {
          "internalType": "uint256",
          "name": "",
          "type": "uint256"
        }
      ],
      "stateMutability": "view",
      "type": "function"
    }
  ],
  "bytecode": "0x60806040523480156200001157600080fd5b5060405162002688380380620026888339818101604052810190620000379190620000e8565b806000806101000a81548173ffffffffffffffffffffffffffffffffffffffff021916908373ffffffffffffffffffffffffffffffffffffffff160217905550506200011a565b600080fd5b600073ffffffffffffffffffffffffffffffffffffffff82169050919050565b6000620000b08262000083565b9050919050565b620000c281620000a3565b8114620000ce57600080fd5b50565b600081519050620000e281620000b7565b92915050565b6000602082840312156200010157620001006200007e565b5b60006200011184828501620000d1565b91505092915050565b61255e806200012a6000396000f3fe608060405234801561001057600080fd5b50600436106100935760003560e01c80637547c7a3116100665780637547c7a3146101345780637aa71225146101505780637cd38ff81461016e578063967720391461019f578063fc0c546a146101bb57610093565b806304e8940d146100985780633ae73259146100b6578063414f8e76146100d45780636bd63efd14610104575b600080fd5b6100a06101d9565b6040516100ad9190611719565b60405180910390f35b6100be6101de565b6040516100cb9190611719565b60405180910390f35b6100ee60048036038101906100e9919061179c565b6101e4565b6040516100fb9190611719565b60405180910390f35b61011e6004803603810190610119919061179c565b6101fc565b60405161012b9190611719565b60405180910390f35b61014e600480360381019061014991906117f5565b610214565b005b610158610612565b604051610165919061191e565b60405180910390f35b610188600480360381019061018391906117f5565b610bca565b60405161019692919061194f565b60405180910390f35b6101b960048036038101906101b49190611a33565b610c1e565b005b6101c3611571565b6040516101d09190611b13565b60405180910390f35b606481565b60025481565b60046020528060005260406000206000915090505481565b60036020528060005260406000206000915090505481565b60646001805490501061025c576040517f08c379a000000000000000000000000000000000000000000000000000000000815260040161025390611b8b565b60405180910390fd5b8060008054906101000a900473ffffffffffffffffffffffffffffffffffffffff1673ffffffffffffffffffffffffffffffffffffffff166370a08231336040518263ffffffff1660e01b81526004016102b69190611bab565b602060405180830381865afa1580156102d3573d6000803e3d6000fd5b505050506040513d601f19601f820116820180604052508101906102f79190611bdb565b11610337576040517f08c379a000000000000000000000000000000000000000000000000000000000815260040161032e90611c54565b60405180910390fd5b60008054906101000a900473ffffffffffffffffffffffffffffffffffffffff1673ffffffffffffffffffffffffffffffffffffffff166323b872dd3330846040518463ffffffff1660e01b815260040161039493929190611c74565b6020604051808303816000875af11580156103b3573d6000803e3d6000fd5b505050506040513d601f19601f820116820180604052508101906103d79190611ce3565b610416576040517f08c379a000000000000000000000000000000000000000000000000000000000815260040161040d90611d5c565b60405180910390fd5b6000805b6001805490508110156104f7573373ffffffffffffffffffffffffffffffffffffffff166001828154811061045257610451611d7c565b5b906000526020600020906002020160000160009054906101000a900473ffffffffffffffffffffffffffffffffffffffff1673ffffffffffffffffffffffffffffffffffffffff16036104e45782600182815481106104b4576104b3611d7c565b5b906000526020600020906002020160010160008282546104d49190611dda565b92505081905550600191506104f7565b80806104ef90611e0e565b91505061041a565b50806105a757600160405180604001604052803373ffffffffffffffffffffffffffffffffffffffff16815260200184815250908060018154018082558091505060019003906000526020600020906002020160009091909190915060008201518160000160006101000a81548173ffffffffffffffffffffffffffffffffffffffff021916908373ffffffffffffffffffffffffffffffffffffffff1602179055506020820151816001015550505b81600260008282546105b99190611dda565b925050819055503373ffffffffffffffffffffffffffffffffffffffff167fb539ca1e5c8d398ddf1c41c30166f33404941683be4683319b57669a93dad4ef836040516106069190611719565b60405180910390a25050565b60606000600180549050905060008111610661576040517f08c379a000000000000000000000000000000000000000000000000000000000815260040161065890611ea2565b60405180910390fd5b60008167ffffffffffffffff81111561067d5761067c611ec2565b5b6040519080825280602002602001820160405280156106b657816020015b6106a36116a0565b81526020019060019003908161069b5790505b509050600a82116107f35760005b828110156107b15760006002546064600184815481106106e7576106e6611d7c565b5b9060005260206000209060020201600101546107039190611ef1565b61070d9190611f62565b905060405180604001604052806001848154811061072e5761072d611d7c565b5b906000526020600020906002020160000160009054906101000a900473ffffffffffffffffffffffffffffffffffffffff1673ffffffffffffffffffffffffffffffffffffffff1681526020018281525083838151811061079257610791611d7c565b5b60200260200101819052505080806107a990611e0e565b9150506106c4565b507fe9c0def359e241a2560944afb599831a33c9223926c6fb89a83be46476d1568b816040516107e1919061191e565b60405180910390a18092505050610bc7565b6000805b60018054905081101561084a576001818154811061081857610817611d7c565b5b906000526020600020906002020160010154826108359190611dda565b9150808061084290611e0e565b9150506107f7565b5060005b600a8110156109a85760008242448460405160200161086f93929190611fb4565b6040516020818303038152906040528051906020012060001c6108929190611ff1565b90506000805b60018054905081101561099257600181815481106108b9576108b8611d7c565b5b906000526020600020906002020160010154826108d69190611dda565b91508183101561097f5760036000600183815481106108f8576108f7611d7c565b5b906000526020600020906002020160000160009054906101000a900473ffffffffffffffffffffffffffffffffffffffff1673ffffffffffffffffffffffffffffffffffffffff1673ffffffffffffffffffffffffffffffffffffffff168152602001908152602001600020600081548092919061097590611e0e565b9190505550610992565b808061098a90611e0e565b915050610898565b50505080806109a090611e0e565b91505061084e565b506000805b600180549050811080156109c15750600a82105b15610b8757600060036000600184815481106109e0576109df611d7c565b5b906000526020600020906002020160000160009054906101000a900473ffffffffffffffffffffffffffffffffffffffff1673ffffffffffffffffffffffffffffffffffffffff1673ffffffffffffffffffffffffffffffffffffffff168152602001908152602001600020541115610b7457604051806040016040528060018381548110610a7257610a71611d7c565b5b906000526020600020906002020160000160009054906101000a900473ffffffffffffffffffffffffffffffffffffffff1673ffffffffffffffffffffffffffffffffffffffff1681526020016003600060018581548110610ad757610ad6611d7c565b5b906000526020600020906002020160000160009054906101000a900473ffffffffffffffffffffffffffffffffffffffff1673ffffffffffffffffffffffffffffffffffffffff1673ffffffffffffffffffffffffffffffffffffffff16815260200190815260200160002054815250848381518110610b5a57610b59611d7c565b5b60200260200101819052508180610b7090611e0e565b9250505b8080610b7f90611e0e565b9150506109ad565b507fe9c0def359e241a2560944afb599831a33c9223926c6fb89a83be46476d1568b83604051610bb7919061191e565b60405180910390a1829450505050505b90565b60018181548110610bda57600080fd5b90600052602060002090600202016000915090508060000160009054906101000a900473ffffffffffffffffffffffffffffffffffffffff16908060010154905082565b600084849050118015610c345750600082829050115b610c73576040517f08c379a0000000000000000000000000000000000000000000000000000000008152600401610c6a9061206e565b60405180910390fd5b60008060005b86869050811015610d2157868682818110610c9757610c96611d7c565b5b9050604002016020013560046000898985818110610cb857610cb7611d7c565b5b9050604002016000016020810190610cd0919061179c565b73ffffffffffffffffffffffffffffffffffffffff1673ffffffffffffffffffffffffffffffffffffffff168152602001908152602001600020819055508080610d1990611e0e565b915050610c79565b5060005b84849050811015610e9f57600060046000878785818110610d4957610d48611d7c565b5b9050604002016000016020810190610d61919061179c565b73ffffffffffffffffffffffffffffffffffffffff1673ffffffffffffffffffffffffffffffffffffffff16815260200190815260200160002054905060008111610de1576040517f08c379a0000000000000000000000000000000000000000000000000000000008152600401610dd8906120da565b60405180910390fd5b6001868684818110610df657610df5611d7c565b5b9050604002016020013503610e18578084610e119190611dda565b9350610e8b565b6002868684818110610e2d57610e2c611d7c565b5b9050604002016020013503610e4f578083610e489190611dda565b9250610e8a565b6040517f08c379a0000000000000000000000000000000000000000000000000000000008152600401610e8190612146565b60405180910390fd5b5b508080610e9790611e0e565b915050610d25565b506000818311610eb0576002610eb3565b60015b90507f95203fbf57fb7c01968a95795ed643f953b7afbabc122e35b74262265aa6093e81604051610ee49190612182565b60405180910390a160008585905067ffffffffffffffff811115610f0b57610f0a611ec2565b5b604051908082528060200260200182016040528015610f4457816020015b610f316116d0565b815260200190600190039081610f295790505b50905060008686905067ffffffffffffffff811115610f6657610f65611ec2565b5b604051908082528060200260200182016040528015610f9f57816020015b610f8c6116d0565b815260200190600190039081610f845790505b50905060008060008060005b8b8b90508110156113445760008c8c83818110610fcb57610fca611d7c565b5b9050604002016000016020810190610fe3919061179c565b90506000610ff082611595565b6040518060400160405290816000820160009054906101000a900473ffffffffffffffffffffffffffffffffffffffff1673ffffffffffffffffffffffffffffffffffffffff1673ffffffffffffffffffffffffffffffffffffffff1681526020016001820154815250509050600081602001519050600081116110a9576040517f08c379a00000000000000000000000000000000000000000000000000000000081526004016110a0906121e9565b60405180910390fd5b8a60ff168f8f868181106110c0576110bf611d7c565b5b905060400201602001351461131f57600060646014836110e09190611ef1565b6110ea9190611f62565b90508060008054906101000a900473ffffffffffffffffffffffffffffffffffffffff1673ffffffffffffffffffffffffffffffffffffffff166370a08231306040518263ffffffff1660e01b81526004016111469190611bab565b602060405180830381865afa158015611163573d6000803e3d6000fd5b505050506040513d601f19601f820116820180604052508101906111879190611bdb565b10156111c8576040517f08c379a00000000000000000000000000000000000000000000000000000000081526004016111bf9061227b565b60405180910390fd5b80866111d49190611dda565b9550600081836111e4919061229b565b905060008054906101000a900473ffffffffffffffffffffffffffffffffffffffff1673ffffffffffffffffffffffffffffffffffffffff1663a9059cbb86836040518363ffffffff1660e01b815260040161124192919061194f565b6020604051808303816000875af1158015611260573d6000803e3d6000fd5b505050506040513d601f19601f820116820180604052508101906112849190611ce3565b6112c3576040517f08c379a00000000000000000000000000000000000000000000000000000000081526004016112ba9061231b565b60405180910390fd5b60405180604001604052808673ffffffffffffffffffffffffffffffffffffffff168152602001838152508b8a806112fa90611e0e565b9b508151811061130d5761130c611d7c565b5b6020026020010181905250505061132e565b808661132b9190611dda565b95505b505050808061133c90611e0e565b915050610fab565b5060005b8b8b9050811015611528578760ff168c8c8381811061136a57611369611d7c565b5b90506040020160200135036115155760008c8c8381811061138e5761138d611d7c565b5b90506040020160000160208101906113a6919061179c565b905060006113b382611595565b60010154905060008585836113c89190611ef1565b6113d29190611f62565b905060008054906101000a900473ffffffffffffffffffffffffffffffffffffffff1673ffffffffffffffffffffffffffffffffffffffff1663a9059cbb84848461141d9190611dda565b6040518363ffffffff1660e01b815260040161143a92919061194f565b6020604051808303816000875af1158015611459573d6000803e3d6000fd5b505050506040513d601f19601f8201168201806040525081019061147d9190611ce3565b6114bc576040517f08c379a00000000000000000000000000000000000000000000000000000000081526004016114b390612387565b60405180910390fd5b60405180604001604052808473ffffffffffffffffffffffffffffffffffffffff168152602001828152508a89806114f390611e0e565b9a508151811061150657611505611d7c565b5b60200260200101819052505050505b808061152090611e0e565b915050611348565b507fe48eadf6eed45fb880deef5f1f12cbc0779715111907f22d786db23e04a7fdfc868660405161155a929190612485565b60405180910390a150505050505050505050505050565b60008054906101000a900473ffffffffffffffffffffffffffffffffffffffff1681565b600080600090505b60018054905081101561165f578273ffffffffffffffffffffffffffffffffffffffff16600182815481106115d5576115d4611d7c565b5b906000526020600020906002020160000160009054906101000a900473ffffffffffffffffffffffffffffffffffffffff1673ffffffffffffffffffffffffffffffffffffffff160361164c576001818154811061163657611635611d7c565b5b906000526020600020906002020191505061169b565b808061165790611e0e565b91505061159d565b506040517f08c379a000000000000000000000000000000000000000000000000000000000815260040161169290612508565b60405180910390fd5b919050565b6040518060400160405280600073ffffffffffffffffffffffffffffffffffffffff168152602001600081525090565b6040518060400160405280600073ffffffffffffffffffffffffffffffffffffffff168152602001600081525090565b6000819050919050565b61171381611700565b82525050565b600060208201905061172e600083018461170a565b92915050565b600080fd5b600080fd5b600073ffffffffffffffffffffffffffffffffffffffff82169050919050565b60006117698261173e565b9050919050565b6117798161175e565b811461178457600080fd5b50565b60008135905061179681611770565b92915050565b6000602082840312156117b2576117b1611734565b5b60006117c084828501611787565b91505092915050565b6117d281611700565b81146117dd57600080fd5b50565b6000813590506117ef816117c9565b92915050565b60006020828403121561180b5761180a611734565b5b6000611819848285016117e0565b91505092915050565b600081519050919050565b600082825260208201905092915050565b6000819050602082019050919050565b6118578161175e565b82525050565b61186681611700565b82525050565b604082016000820151611882600085018261184e565b506020820151611895602085018261185d565b50505050565b60006118a7838361186c565b60408301905092915050565b6000602082019050919050565b60006118cb82611822565b6118d5818561182d565b93506118e08361183e565b8060005b838110156119115781516118f8888261189b565b9750611903836118b3565b9250506001810190506118e4565b5085935050505092915050565b6000602082019050818103600083015261193881846118c0565b905092915050565b6119498161175e565b82525050565b60006040820190506119646000830185611940565b611971602083018461170a565b9392505050565b600080fd5b600080fd5b600080fd5b60008083601f84011261199d5761199c611978565b5b8235905067ffffffffffffffff8111156119ba576119b961197d565b5b6020830191508360408202830111156119d6576119d5611982565b5b9250929050565b60008083601f8401126119f3576119f2611978565b5b8235905067ffffffffffffffff811115611a1057611a0f61197d565b5b602083019150836040820283011115611a2c57611a2b611982565b5b9250929050565b60008060008060408587031215611a4d57611a4c611734565b5b600085013567ffffffffffffffff811115611a6b57611a6a611739565b5b611a7787828801611987565b9450945050602085013567ffffffffffffffff811115611a9a57611a99611739565b5b611aa6878288016119dd565b925092505092959194509250565b6000819050919050565b6000611ad9611ad4611acf8461173e565b611ab4565b61173e565b9050919050565b6000611aeb82611abe565b9050919050565b6000611afd82611ae0565b9050919050565b611b0d81611af2565b82525050565b6000602082019050611b286000830184611b04565b92915050565b600082825260208201905092915050565b7f4d6178206a75726f727320726561636865640000000000000000000000000000600082015250565b6000611b75601283611b2e565b9150611b8082611b3f565b602082019050919050565b60006020820190508181036000830152611ba481611b68565b9050919050565b6000602082019050611bc06000830184611940565b92915050565b600081519050611bd5816117c9565b92915050565b600060208284031215611bf157611bf0611734565b5b6000611bff84828501611bc6565b91505092915050565b7f4e6f7420656e6f7567682062616c616e63650000000000000000000000000000600082015250565b6000611c3e601283611b2e565b9150611c4982611c08565b602082019050919050565b60006020820190508181036000830152611c6d81611c31565b9050919050565b6000606082019050611c896000830186611940565b611c966020830185611940565b611ca3604083018461170a565b949350505050565b60008115159050919050565b611cc081611cab565b8114611ccb57600080fd5b50565b600081519050611cdd81611cb7565b92915050565b600060208284031215611cf957611cf8611734565b5b6000611d0784828501611cce565b91505092915050565b7f5472616e73666572206661696c65640000000000000000000000000000000000600082015250565b6000611d46600f83611b2e565b9150611d5182611d10565b602082019050919050565b60006020820190508181036000830152611d7581611d39565b9050919050565b7f4e487b7100000000000000000000000000000000000000000000000000000000600052603260045260246000fd5b7f4e487b7100000000000000000000000000000000000000000000000000000000600052601160045260246000fd5b6000611de582611700565b9150611df083611700565b9250828201905080821115611e0857611e07611dab565b5b92915050565b6000611e1982611700565b91507fffffffffffffffffffffffffffffffffffffffffffffffffffffffffffffffff8203611e4b57611e4a611dab565b5b600182019050919050565b7f4e6f206a75726f727320617661696c61626c6500000000000000000000000000600082015250565b6000611e8c601383611b2e565b9150611e9782611e56565b602082019050919050565b60006020820190508181036000830152611ebb81611e7f565b9050919050565b7f4e487b7100000000000000000000000000000000000000000000000000000000600052604160045260246000fd5b6000611efc82611700565b9150611f0783611700565b9250828202611f1581611700565b91508282048414831517611f2c57611f2b611dab565b5b5092915050565b7f4e487b7100000000000000000000000000000000000000000000000000000000600052601260045260246000fd5b6000611f6d82611700565b9150611f7883611700565b925082611f8857611f87611f33565b5b828204905092915050565b6000819050919050565b611fae611fa982611700565b611f93565b82525050565b6000611fc08286611f9d565b602082019150611fd08285611f9d565b602082019150611fe08284611f9d565b602082019150819050949350505050565b6000611ffc82611700565b915061200783611700565b92508261201757612016611f33565b5b828206905092915050565b7f566f7465727320616e6420766f7465732063616e6e6f7420626520656d707479600082015250565b6000612058602083611b2e565b915061206382612022565b602082019050919050565b600060208201905081810360008301526120878161204b565b9050919050565b7f496e76616c6964206f7220756e7265676973746572656420766f746572000000600082015250565b60006120c4601d83611b2e565b91506120cf8261208e565b602082019050919050565b600060208201905081810360008301526120f3816120b7565b9050919050565b7f496e76616c696420766f7465206f7074696f6e00000000000000000000000000600082015250565b6000612130601383611b2e565b915061213b826120fa565b602082019050919050565b6000602082019050818103600083015261215f81612123565b9050919050565b600060ff82169050919050565b61217c81612166565b82525050565b60006020820190506121976000830184612173565b92915050565b7f5374616b65206d7573742062652067726561746572207468616e207a65726f00600082015250565b60006121d3601f83611b2e565b91506121de8261219d565b602082019050919050565b60006020820190508181036000830152612202816121c6565b9050919050565b7f496e73756666696369656e7420636f6e74726163742062616c616e636520666f60008201527f722070656e616c74696573000000000000000000000000000000000000000000602082015250565b6000612265602b83611b2e565b915061227082612209565b604082019050919050565b6000602082019050818103600083015261229481612258565b9050919050565b60006122a682611700565b91506122b183611700565b92508282039050818111156122c9576122c8611dab565b5b92915050565b7f50656e616c7479207472616e73666572206661696c6564000000000000000000600082015250565b6000612305601783611b2e565b9150612310826122cf565b602082019050919050565b60006020820190508181036000830152612334816122f8565b9050919050565b7f526577617264207472616e73666572206661696c656400000000000000000000600082015250565b6000612371601683611b2e565b915061237c8261233b565b602082019050919050565b600060208201905081810360008301526123a081612364565b9050919050565b600081519050919050565b600082825260208201905092915050565b6000819050602082019050919050565b6040820160008201516123e9600085018261184e565b5060208201516123fc602085018261185d565b50505050565b600061240e83836123d3565b60408301905092915050565b6000602082019050919050565b6000612432826123a7565b61243c81856123b2565b9350612447836123c3565b8060005b8381101561247857815161245f8882612402565b975061246a8361241a565b92505060018101905061244b565b5085935050505092915050565b6000604082019050818103600083015261249f8185612427565b905081810360208301526124b38184612427565b90509392505050565b7f4a75726f72206e6f7420666f756e640000000000000000000000000000000000600082015250565b60006124f2600f83611b2e565b91506124fd826124bc565b602082019050919050565b60006020820190508181036000830152612521816124e5565b905091905056fea2646970667358221220a14f83d485b8e5401a7d526bf3481968af6b8b833b39924e4354ab044e0ce42964736f6c63430008140033",
  "linkReferences": {},
  "deployedLinkReferences": {}
}